{
  "contractName": "BleepTokenContract",
  "abi": [
    {
      "inputs": [],
      "stateMutability": "nonpayable",
      "type": "constructor"
    },
    {
      "anonymous": false,
      "inputs": [
        {
          "indexed": true,
          "internalType": "address",
          "name": "owner",
          "type": "address"
        },
        {
          "indexed": true,
          "internalType": "address",
          "name": "spender",
          "type": "address"
        },
        {
          "indexed": false,
          "internalType": "uint256",
          "name": "value",
          "type": "uint256"
        }
      ],
      "name": "Approval",
      "type": "event"
    },
    {
      "anonymous": false,
      "inputs": [
        {
          "indexed": true,
          "internalType": "address",
          "name": "from",
          "type": "address"
        },
        {
          "indexed": true,
          "internalType": "address",
          "name": "to",
          "type": "address"
        },
        {
          "indexed": false,
          "internalType": "uint256",
          "name": "value",
          "type": "uint256"
        }
      ],
      "name": "Transfer",
      "type": "event"
    },
    {
      "inputs": [
        {
          "internalType": "address",
          "name": "owner",
          "type": "address"
        },
        {
          "internalType": "address",
          "name": "spender",
          "type": "address"
        }
      ],
      "name": "allowance",
      "outputs": [
        {
          "internalType": "uint256",
          "name": "",
          "type": "uint256"
        }
      ],
      "stateMutability": "view",
      "type": "function",
      "constant": true
    },
    {
      "inputs": [
        {
          "internalType": "address",
          "name": "spender",
          "type": "address"
        },
        {
          "internalType": "uint256",
          "name": "amount",
          "type": "uint256"
        }
      ],
      "name": "approve",
      "outputs": [
        {
          "internalType": "bool",
          "name": "",
          "type": "bool"
        }
      ],
      "stateMutability": "nonpayable",
      "type": "function"
    },
    {
      "inputs": [
        {
          "internalType": "address",
          "name": "account",
          "type": "address"
        }
      ],
      "name": "balanceOf",
      "outputs": [
        {
          "internalType": "uint256",
          "name": "",
          "type": "uint256"
        }
      ],
      "stateMutability": "view",
      "type": "function",
      "constant": true
    },
    {
      "inputs": [],
      "name": "decimals",
      "outputs": [
        {
          "internalType": "uint8",
          "name": "",
          "type": "uint8"
        }
      ],
      "stateMutability": "view",
      "type": "function",
      "constant": true
    },
    {
      "inputs": [
        {
          "internalType": "address",
          "name": "spender",
          "type": "address"
        },
        {
          "internalType": "uint256",
          "name": "subtractedValue",
          "type": "uint256"
        }
      ],
      "name": "decreaseAllowance",
      "outputs": [
        {
          "internalType": "bool",
          "name": "",
          "type": "bool"
        }
      ],
      "stateMutability": "nonpayable",
      "type": "function"
    },
    {
      "inputs": [
        {
          "internalType": "address",
          "name": "spender",
          "type": "address"
        },
        {
          "internalType": "uint256",
          "name": "addedValue",
          "type": "uint256"
        }
      ],
      "name": "increaseAllowance",
      "outputs": [
        {
          "internalType": "bool",
          "name": "",
          "type": "bool"
        }
      ],
      "stateMutability": "nonpayable",
      "type": "function"
    },
    {
      "inputs": [],
      "name": "name",
      "outputs": [
        {
          "internalType": "string",
          "name": "",
          "type": "string"
        }
      ],
      "stateMutability": "view",
      "type": "function",
      "constant": true
    },
    {
      "inputs": [
        {
          "internalType": "address",
          "name": "",
          "type": "address"
        }
      ],
      "name": "nonces",
      "outputs": [
        {
          "internalType": "uint8",
          "name": "",
          "type": "uint8"
        }
      ],
      "stateMutability": "view",
      "type": "function",
      "constant": true
    },
    {
      "inputs": [],
      "name": "symbol",
      "outputs": [
        {
          "internalType": "string",
          "name": "",
          "type": "string"
        }
      ],
      "stateMutability": "view",
      "type": "function",
      "constant": true
    },
    {
      "inputs": [],
      "name": "totalSupply",
      "outputs": [
        {
          "internalType": "uint256",
          "name": "",
          "type": "uint256"
        }
      ],
      "stateMutability": "view",
      "type": "function",
      "constant": true
    },
    {
      "inputs": [
        {
          "internalType": "address",
          "name": "recipient",
          "type": "address"
        },
        {
          "internalType": "uint256",
          "name": "amount",
          "type": "uint256"
        }
      ],
      "name": "transfer",
      "outputs": [
        {
          "internalType": "bool",
          "name": "",
          "type": "bool"
        }
      ],
      "stateMutability": "nonpayable",
      "type": "function"
    },
    {
      "inputs": [
        {
          "internalType": "address",
          "name": "sender",
          "type": "address"
        },
        {
          "internalType": "address",
          "name": "recipient",
          "type": "address"
        },
        {
          "internalType": "uint256",
          "name": "amount",
          "type": "uint256"
        }
      ],
      "name": "transferFrom",
      "outputs": [
        {
          "internalType": "bool",
          "name": "",
          "type": "bool"
        }
      ],
      "stateMutability": "nonpayable",
      "type": "function"
    },
    {
      "inputs": [
        {
          "internalType": "address",
          "name": "_recipient",
          "type": "address"
        },
        {
          "internalType": "uint256",
          "name": "_amount",
          "type": "uint256"
        }
      ],
      "name": "mint",
      "outputs": [
        {
          "internalType": "bool",
          "name": "",
          "type": "bool"
        }
      ],
      "stateMutability": "nonpayable",
      "type": "function"
    },
    {
      "inputs": [
        {
          "internalType": "address",
          "name": "_owner",
          "type": "address"
        },
        {
          "internalType": "address",
          "name": "_spender",
          "type": "address"
        },
        {
          "internalType": "uint256",
          "name": "_value",
          "type": "uint256"
        },
        {
          "internalType": "uint256",
          "name": "_deadline",
          "type": "uint256"
        },
        {
          "internalType": "bytes",
          "name": "_signature",
          "type": "bytes"
        }
      ],
      "name": "permit",
      "outputs": [
        {
          "internalType": "bool",
          "name": "",
          "type": "bool"
        }
      ],
      "stateMutability": "nonpayable",
      "type": "function"
    }
  ],
  "bytecode": "0x60806040523480156200001157600080fd5b506040518060400160405280600b81526020017f426c65657020546f6b656e0000000000000000000000000000000000000000008152506040518060400160405280600381526020017f424c500000000000000000000000000000000000000000000000000000000000815250816003908051906020019062000096929190620000d4565b508060049080519060200190620000af929190620000d4565b506012600560006101000a81548160ff021916908360ff160217905550505062000183565b828054600181600116156101000203166002900490600052602060002090601f016020900481019282601f106200011757805160ff191683800117855562000148565b8280016001018555821562000148579182015b82811115620001475782518255916020019190600101906200012a565b5b5090506200015791906200015b565b5090565b6200018091905b808211156200017c57600081600090555060010162000162565b5090565b90565b611fd480620001936000396000f3fe608060405234801561001057600080fd5b50600436106100ea5760003560e01c806370a082311161008c5780639fd5a6cf116100665780639fd5a6cf146104a5578063a457c2d71461058a578063a9059cbb146105f0578063dd62ed3e14610656576100ea565b806370a082311461036c5780637ecebe00146103c457806395d89b4114610422576100ea565b806323b872dd116100c857806323b872dd146101f6578063313ce5671461027c57806339509351146102a057806340c10f1914610306576100ea565b806306fdde03146100ef578063095ea7b31461017257806318160ddd146101d8575b600080fd5b6100f76106ce565b6040518080602001828103825283818151815260200191508051906020019080838360005b8381101561013757808201518184015260208101905061011c565b50505050905090810190601f1680156101645780820380516001836020036101000a031916815260200191505b509250505060405180910390f35b6101be6004803603604081101561018857600080fd5b81019080803573ffffffffffffffffffffffffffffffffffffffff16906020019092919080359060200190929190505050610770565b604051808215151515815260200191505060405180910390f35b6101e061078e565b6040518082815260200191505060405180910390f35b6102626004803603606081101561020c57600080fd5b81019080803573ffffffffffffffffffffffffffffffffffffffff169060200190929190803573ffffffffffffffffffffffffffffffffffffffff16906020019092919080359060200190929190505050610798565b604051808215151515815260200191505060405180910390f35b610284610871565b604051808260ff1660ff16815260200191505060405180910390f35b6102ec600480360360408110156102b657600080fd5b81019080803573ffffffffffffffffffffffffffffffffffffffff16906020019092919080359060200190929190505050610888565b604051808215151515815260200191505060405180910390f35b6103526004803603604081101561031c57600080fd5b81019080803573ffffffffffffffffffffffffffffffffffffffff1690602001909291908035906020019092919050505061093b565b604051808215151515815260200191505060405180910390f35b6103ae6004803603602081101561038257600080fd5b81019080803573ffffffffffffffffffffffffffffffffffffffff169060200190929190505050610951565b6040518082815260200191505060405180910390f35b610406600480360360208110156103da57600080fd5b81019080803573ffffffffffffffffffffffffffffffffffffffff169060200190929190505050610999565b604051808260ff1660ff16815260200191505060405180910390f35b61042a6109b9565b6040518080602001828103825283818151815260200191508051906020019080838360005b8381101561046a57808201518184015260208101905061044f565b50505050905090810190601f1680156104975780820380516001836020036101000a031916815260200191505b509250505060405180910390f35b610570600480360360a08110156104bb57600080fd5b81019080803573ffffffffffffffffffffffffffffffffffffffff169060200190929190803573ffffffffffffffffffffffffffffffffffffffff16906020019092919080359060200190929190803590602001909291908035906020019064010000000081111561052c57600080fd5b82018360208201111561053e57600080fd5b8035906020019184600183028401116401000000008311171561056057600080fd5b9091929391929390505050610a5b565b604051808215151515815260200191505060405180910390f35b6105d6600480360360408110156105a057600080fd5b81019080803573ffffffffffffffffffffffffffffffffffffffff16906020019092919080359060200190929190505050610e64565b604051808215151515815260200191505060405180910390f35b61063c6004803603604081101561060657600080fd5b81019080803573ffffffffffffffffffffffffffffffffffffffff16906020019092919080359060200190929190505050610f31565b604051808215151515815260200191505060405180910390f35b6106b86004803603604081101561066c57600080fd5b81019080803573ffffffffffffffffffffffffffffffffffffffff169060200190929190803573ffffffffffffffffffffffffffffffffffffffff169060200190929190505050610f4f565b6040518082815260200191505060405180910390f35b606060038054600181600116156101000203166002900480601f0160208091040260200160405190810160405280929190818152602001828054600181600116156101000203166002900480156107665780601f1061073b57610100808354040283529160200191610766565b820191906000526020600020905b81548152906001019060200180831161074957829003601f168201915b5050505050905090565b600061078461077d610fd6565b8484610fde565b6001905092915050565b6000600254905090565b60006107a58484846111d5565b610866846107b1610fd6565b61086185604051806060016040528060288152602001611eba60289139600160008b73ffffffffffffffffffffffffffffffffffffffff1673ffffffffffffffffffffffffffffffffffffffff1681526020019081526020016000206000610817610fd6565b73ffffffffffffffffffffffffffffffffffffffff1673ffffffffffffffffffffffffffffffffffffffff168152602001908152602001600020546114969092919063ffffffff16565b610fde565b600190509392505050565b6000600560009054906101000a900460ff16905090565b6000610931610895610fd6565b8461092c85600160006108a6610fd6565b73ffffffffffffffffffffffffffffffffffffffff1673ffffffffffffffffffffffffffffffffffffffff16815260200190815260200160002060008973ffffffffffffffffffffffffffffffffffffffff1673ffffffffffffffffffffffffffffffffffffffff1681526020019081526020016000205461155690919063ffffffff16565b610fde565b6001905092915050565b600061094783836115de565b6001905092915050565b60008060008373ffffffffffffffffffffffffffffffffffffffff1673ffffffffffffffffffffffffffffffffffffffff168152602001908152602001600020549050919050565b60066020528060005260406000206000915054906101000a900460ff1681565b606060048054600181600116156101000203166002900480601f016020809104026020016040519081016040528092919081815260200182805460018160011615610100020316600290048015610a515780601f10610a2657610100808354040283529160200191610a51565b820191906000526020600020905b815481529060010190602001808311610a3457829003601f168201915b5050505050905090565b6000610a65611d5a565b6040518060a001604052808973ffffffffffffffffffffffffffffffffffffffff1681526020018873ffffffffffffffffffffffffffffffffffffffff168152602001878152602001868152602001600660008b73ffffffffffffffffffffffffffffffffffffffff1673ffffffffffffffffffffffffffffffffffffffff16815260200190815260200160002060009054906101000a900460ff1660ff1681525090506000610b1582306117a5565b9050610b6e85858080601f016020809104026020016040519081016040528093929190818152602001838380828437600081840152601f19601f8201169050808301925050505050505082611aba90919063ffffffff16565b73ffffffffffffffffffffffffffffffffffffffff168973ffffffffffffffffffffffffffffffffffffffff1614610c0e576040517f08c379a00000000000000000000000000000000000000000000000000000000081526004018080602001828103825260168152602001807f696e636f72656374206f776e657220616464726573730000000000000000000081525060200191505060405180910390fd5b86610c188a610951565b1015610c8c576040517f08c379a000000000000000000000000000000000000000000000000000000000815260040180806020018281038252600f8152602001807f696e76616c69642062616c616e6365000000000000000000000000000000000081525060200191505060405180910390fd5b85421115610d02576040517f08c379a00000000000000000000000000000000000000000000000000000000081526004018080602001828103825260108152602001807f696e76616c696420646561646c696e650000000000000000000000000000000081525060200191505060405180910390fd5b600073ffffffffffffffffffffffffffffffffffffffff168973ffffffffffffffffffffffffffffffffffffffff1614158015610d6c5750600073ffffffffffffffffffffffffffffffffffffffff168873ffffffffffffffffffffffffffffffffffffffff1614155b610dde576040517f08c379a000000000000000000000000000000000000000000000000000000000815260040180806020018281038252600c8152602001807f7a65726f2061646472657373000000000000000000000000000000000000000081525060200191505060405180910390fd5b610de9898989610fde565b6001600660008b73ffffffffffffffffffffffffffffffffffffffff1673ffffffffffffffffffffffffffffffffffffffff16815260200190815260200160002060008282829054906101000a900460ff160192506101000a81548160ff021916908360ff1602179055506001925050509695505050505050565b6000610f27610e71610fd6565b84610f2285604051806060016040528060258152602001611f7a6025913960016000610e9b610fd6565b73ffffffffffffffffffffffffffffffffffffffff1673ffffffffffffffffffffffffffffffffffffffff16815260200190815260200160002060008a73ffffffffffffffffffffffffffffffffffffffff1673ffffffffffffffffffffffffffffffffffffffff168152602001908152602001600020546114969092919063ffffffff16565b610fde565b6001905092915050565b6000610f45610f3e610fd6565b84846111d5565b6001905092915050565b6000600160008473ffffffffffffffffffffffffffffffffffffffff1673ffffffffffffffffffffffffffffffffffffffff16815260200190815260200160002060008373ffffffffffffffffffffffffffffffffffffffff1673ffffffffffffffffffffffffffffffffffffffff16815260200190815260200160002054905092915050565b600033905090565b600073ffffffffffffffffffffffffffffffffffffffff168373ffffffffffffffffffffffffffffffffffffffff161415611064576040517f08c379a0000000000000000000000000000000000000000000000000000000008152600401808060200182810382526024815260200180611f076024913960400191505060405180910390fd5b600073ffffffffffffffffffffffffffffffffffffffff168273ffffffffffffffffffffffffffffffffffffffff1614156110ea576040517f08c379a0000000000000000000000000000000000000000000000000000000008152600401808060200182810382526022815260200180611ddc6022913960400191505060405180910390fd5b80600160008573ffffffffffffffffffffffffffffffffffffffff1673ffffffffffffffffffffffffffffffffffffffff16815260200190815260200160002060008473ffffffffffffffffffffffffffffffffffffffff1673ffffffffffffffffffffffffffffffffffffffff168152602001908152602001600020819055508173ffffffffffffffffffffffffffffffffffffffff168373ffffffffffffffffffffffffffffffffffffffff167f8c5be1e5ebec7d5bd14f71427d1e84f3dd0314c0f7b2291e5b200ac8c7c3b925836040518082815260200191505060405180910390a3505050565b600073ffffffffffffffffffffffffffffffffffffffff168373ffffffffffffffffffffffffffffffffffffffff16141561125b576040517f08c379a0000000000000000000000000000000000000000000000000000000008152600401808060200182810382526025815260200180611ee26025913960400191505060405180910390fd5b600073ffffffffffffffffffffffffffffffffffffffff168273ffffffffffffffffffffffffffffffffffffffff1614156112e1576040517f08c379a0000000000000000000000000000000000000000000000000000000008152600401808060200182810382526023815260200180611db96023913960400191505060405180910390fd5b6112ec838383611d55565b61135781604051806060016040528060268152602001611dfe602691396000808773ffffffffffffffffffffffffffffffffffffffff1673ffffffffffffffffffffffffffffffffffffffff168152602001908152602001600020546114969092919063ffffffff16565b6000808573ffffffffffffffffffffffffffffffffffffffff1673ffffffffffffffffffffffffffffffffffffffff168152602001908152602001600020819055506113ea816000808573ffffffffffffffffffffffffffffffffffffffff1673ffffffffffffffffffffffffffffffffffffffff1681526020019081526020016000205461155690919063ffffffff16565b6000808473ffffffffffffffffffffffffffffffffffffffff1673ffffffffffffffffffffffffffffffffffffffff168152602001908152602001600020819055508173ffffffffffffffffffffffffffffffffffffffff168373ffffffffffffffffffffffffffffffffffffffff167fddf252ad1be2c89b69c2b068fc378daa952ba7f163c4a11628f55a4df523b3ef836040518082815260200191505060405180910390a3505050565b6000838311158290611543576040517f08c379a00000000000000000000000000000000000000000000000000000000081526004018080602001828103825283818151815260200191508051906020019080838360005b838110156115085780820151818401526020810190506114ed565b50505050905090810190601f1680156115355780820380516001836020036101000a031916815260200191505b509250505060405180910390fd5b5060008385039050809150509392505050565b6000808284019050838110156115d4576040517f08c379a000000000000000000000000000000000000000000000000000000000815260040180806020018281038252601b8152602001807f536166654d6174683a206164646974696f6e206f766572666c6f77000000000081525060200191505060405180910390fd5b8091505092915050565b600073ffffffffffffffffffffffffffffffffffffffff168273ffffffffffffffffffffffffffffffffffffffff161415611681576040517f08c379a000000000000000000000000000000000000000000000000000000000815260040180806020018281038252601f8152602001807f45524332303a206d696e7420746f20746865207a65726f20616464726573730081525060200191505060405180910390fd5b61168d60008383611d55565b6116a28160025461155690919063ffffffff16565b6002819055506116f9816000808573ffffffffffffffffffffffffffffffffffffffff1673ffffffffffffffffffffffffffffffffffffffff1681526020019081526020016000205461155690919063ffffffff16565b6000808473ffffffffffffffffffffffffffffffffffffffff1673ffffffffffffffffffffffffffffffffffffffff168152602001908152602001600020819055508173ffffffffffffffffffffffffffffffffffffffff16600073ffffffffffffffffffffffffffffffffffffffff167fddf252ad1be2c89b69c2b068fc378daa952ba7f163c4a11628f55a4df523b3ef836040518082815260200191505060405180910390a35050565b600080604051806080016040528060528152602001611e68605291396040516020018082805190602001908083835b602083106117f757805182526020820191506020810190506020830392506117d4565b6001836020036101000a0380198251168184511680821785525050505050509050019150506040516020818303038152906040528051906020012060405180807f426c65657020546f6b656e000000000000000000000000000000000000000000815250600b019050604051809103902060405180807f310000000000000000000000000000000000000000000000000000000000000081525060010190506040518091039020602a86604051602001808681526020018581526020018481526020018381526020018273ffffffffffffffffffffffffffffffffffffffff1673ffffffffffffffffffffffffffffffffffffffff16815260200195505050505050604051602081830303815290604052805190602001209050806040518060800160405280604f8152602001611f2b604f91396040516020018082805190602001908083835b60208310611961578051825260208201915060208101905060208303925061193e565b6001836020036101000a0380198251168184511680821785525050505050509050019150506040516020818303038152906040528051906020012085600001518660200151876040015188606001518960800151604051602001808781526020018673ffffffffffffffffffffffffffffffffffffffff1673ffffffffffffffffffffffffffffffffffffffff1681526020018573ffffffffffffffffffffffffffffffffffffffff1673ffffffffffffffffffffffffffffffffffffffff1681526020018481526020018381526020018260ff1660ff16815260200196505050505050506040516020818303038152906040528051906020012060405160200180807f1901000000000000000000000000000000000000000000000000000000000000815250600201838152602001828152602001925050506040516020818303038152906040528051906020012091505092915050565b60006041825114611b33576040517f08c379a000000000000000000000000000000000000000000000000000000000815260040180806020018281038252601f8152602001807f45434453413a20696e76616c6964207369676e6174757265206c656e6774680081525060200191505060405180910390fd5b60008060006020850151925060408501519150606085015160001a90507f7fffffffffffffffffffffffffffffff5d576e7357a4501ddfe92f46681b20a08260001c1115611bcc576040517f08c379a0000000000000000000000000000000000000000000000000000000008152600401808060200182810382526022815260200180611e246022913960400191505060405180910390fd5b601b8160ff1614158015611be45750601c8160ff1614155b15611c3a576040517f08c379a0000000000000000000000000000000000000000000000000000000008152600401808060200182810382526022815260200180611e466022913960400191505060405180910390fd5b600060018783868660405160008152602001604052604051808581526020018460ff1660ff1681526020018381526020018281526020019450505050506020604051602081039080840390855afa158015611c99573d6000803e3d6000fd5b505050602060405103519050600073ffffffffffffffffffffffffffffffffffffffff168173ffffffffffffffffffffffffffffffffffffffff161415611d48576040517f08c379a00000000000000000000000000000000000000000000000000000000081526004018080602001828103825260188152602001807f45434453413a20696e76616c6964207369676e6174757265000000000000000081525060200191505060405180910390fd5b8094505050505092915050565b505050565b6040518060a00160405280600073ffffffffffffffffffffffffffffffffffffffff168152602001600073ffffffffffffffffffffffffffffffffffffffff1681526020016000815260200160008152602001600060ff168152509056fe45524332303a207472616e7366657220746f20746865207a65726f206164647265737345524332303a20617070726f766520746f20746865207a65726f206164647265737345524332303a207472616e7366657220616d6f756e7420657863656564732062616c616e636545434453413a20696e76616c6964207369676e6174757265202773272076616c756545434453413a20696e76616c6964207369676e6174757265202776272076616c7565454950373132446f6d61696e28737472696e67206e616d652c737472696e672076657273696f6e2c75696e7432353620636861696e49642c6164647265737320766572696679696e67436f6e74726163742945524332303a207472616e7366657220616d6f756e74206578636565647320616c6c6f77616e636545524332303a207472616e736665722066726f6d20746865207a65726f206164647265737345524332303a20617070726f76652066726f6d20746865207a65726f2061646472657373416c6c6f772861646472657373206f776e65722c61646472657373207370656e6465722c75696e743235362076616c75652c75696e7432353620646561646c696e652c75696e7438206e6f6e63652945524332303a2064656372656173656420616c6c6f77616e63652062656c6f77207a65726fa26469706673582212203ed33c2e02d3c53b5510e24c7199dd2c662c2cdf82b9d87e64afece10f6d355764736f6c63430006060033",
  "immutableReferences": {},
  "source": "pragma solidity 0.6.6;\n\nimport \"@openzeppelin/contracts/token/ERC20/ERC20.sol\";\nimport \"@openzeppelin/contracts/cryptography/ECDSA.sol\";\nimport \"@openzeppelin/contracts/math/SafeMath.sol\";\n\ncontract BleepTokenContract is ERC20 {\n  // using OZ lib for recoving address from sigs \n  using ECDSA for bytes32;\n  mapping(address=>uint8) public nonces;\n\n  /* ============ EIP712 Signature Info  ============ */\n  uint256 constant chainId = 42; //Kovan\n  string private constant EIP712_DOMAIN = \"EIP712Domain(string name,string version,uint256 chainId,address verifyingContract)\";\n  string private constant ALLOW_TYPE = \"Allow(address owner,address spender,uint256 value,uint256 deadline,uint8 nonce)\";\n  bytes32 private constant EIP712_DOMAIN_TYPEHASH = keccak256(abi.encodePacked(EIP712_DOMAIN));\n  bytes32 private constant ALLOW_TYPEHASH = keccak256(abi.encodePacked(ALLOW_TYPE));\n\n  struct Allow {\n    address owner;\n    address spender;\n    uint256 value;\n    uint256 deadline; \n    uint8 nonce;\n  }\n\n  constructor() ERC20(\"Bleep Token\", \"BLP\") public {\n  }\n\n  function mint(address _recipient, uint256 _amount) external returns(bool) {\n    _mint(_recipient, _amount);\n    return true;\n  }\n\n  function hashAllow(\n    Allow memory permit,\n    address _verifyingContract\n  ) private pure returns(bytes32) {\n    bytes32 DOMAIN_SEPARATOR = keccak256(abi.encode(\n    EIP712_DOMAIN_TYPEHASH,\n    keccak256(\"Bleep Token\"),\n    keccak256(\"1\"),\n    chainId,\n    _verifyingContract // verifyingContract\n  ));\n\n  return keccak256(abi.encodePacked(\n    \"\\x19\\x01\",\n    DOMAIN_SEPARATOR,\n    keccak256(abi.encode(\n      ALLOW_TYPEHASH,\n      permit.owner,\n      permit.spender,\n      permit.value,\n      permit.deadline,\n      permit.nonce\n    ))\n  ));\n  }\n\n  function permit(\n    address _owner, \n    address _spender,\n    uint256 _value, \n    uint256 _deadline,\n    bytes calldata _signature \n    ) external returns(bool) {\n      \n    Allow memory allow = Allow({\n      owner: _owner,\n      spender: _spender,\n      value: _value,\n      deadline: _deadline,\n      nonce: nonces[_owner]\n    });\n\n    bytes32 hash = hashAllow(allow, address(this));\n    require(_owner == hash.recover(_signature), 'incorect owner address');\n    require(balanceOf(_owner) >= _value, 'invalid balance');\n    require(block.timestamp <= _deadline, 'invalid deadline');\n    require(_owner != address(0) && _spender != address(0), 'zero address');\n    _approve(_owner, _spender, _value);\n    nonces[_owner] += 1;\n\n    return true;\n  }\n  \n}",
  "sourcePath": "/Users/justsomeguy/Documents/practice/dapp-pratice/contracts/BleepTokenContract.sol",
  "compiler": {
    "name": "solc",
    "version": "0.6.6+commit.6c089d02.Emscripten.clang"
  },
  "schemaVersion": "3.1.0",
  "updatedAt": "2020-09-12T17:31:45.407Z",
  "networkType": "ethereum",
  "devdoc": {
    "methods": {
      "allowance(address,address)": {
        "details": "See {IERC20-allowance}."
      },
      "approve(address,uint256)": {
        "details": "See {IERC20-approve}.     * Requirements:     * - `spender` cannot be the zero address."
      },
      "balanceOf(address)": {
        "details": "See {IERC20-balanceOf}."
      },
      "decimals()": {
        "details": "Returns the number of decimals used to get its user representation. For example, if `decimals` equals `2`, a balance of `505` tokens should be displayed to a user as `5,05` (`505 / 10 ** 2`).     * Tokens usually opt for a value of 18, imitating the relationship between Ether and Wei. This is the value {ERC20} uses, unless {_setupDecimals} is called.     * NOTE: This information is only used for _display_ purposes: it in no way affects any of the arithmetic of the contract, including {IERC20-balanceOf} and {IERC20-transfer}."
      },
      "decreaseAllowance(address,uint256)": {
        "details": "Atomically decreases the allowance granted to `spender` by the caller.     * This is an alternative to {approve} that can be used as a mitigation for problems described in {IERC20-approve}.     * Emits an {Approval} event indicating the updated allowance.     * Requirements:     * - `spender` cannot be the zero address. - `spender` must have allowance for the caller of at least `subtractedValue`."
      },
      "increaseAllowance(address,uint256)": {
        "details": "Atomically increases the allowance granted to `spender` by the caller.     * This is an alternative to {approve} that can be used as a mitigation for problems described in {IERC20-approve}.     * Emits an {Approval} event indicating the updated allowance.     * Requirements:     * - `spender` cannot be the zero address."
      },
      "name()": {
        "details": "Returns the name of the token."
      },
      "symbol()": {
        "details": "Returns the symbol of the token, usually a shorter version of the name."
      },
      "totalSupply()": {
        "details": "See {IERC20-totalSupply}."
      },
      "transfer(address,uint256)": {
        "details": "See {IERC20-transfer}.     * Requirements:     * - `recipient` cannot be the zero address. - the caller must have a balance of at least `amount`."
      },
      "transferFrom(address,address,uint256)": {
        "details": "See {IERC20-transferFrom}.     * Emits an {Approval} event indicating the updated allowance. This is not required by the EIP. See the note at the beginning of {ERC20};     * Requirements: - `sender` and `recipient` cannot be the zero address. - `sender` must have a balance of at least `amount`. - the caller must have allowance for ``sender``'s tokens of at least `amount`."
      }
    }
  },
  "userdoc": {
    "methods": {}
  }
}