{
  "contractName": "FlashLoanPractice",
  "abi": [
    {
      "inputs": [],
      "stateMutability": "nonpayable",
      "type": "constructor"
    },
    {
      "inputs": [
        {
          "internalType": "address",
          "name": "_tokenAddress",
          "type": "address"
        },
        {
          "internalType": "address",
          "name": "_reserve",
          "type": "address"
        },
        {
          "internalType": "uint256",
          "name": "_amount",
          "type": "uint256"
        },
        {
          "internalType": "uint256",
          "name": "_fee",
          "type": "uint256"
        }
      ],
      "name": "executeOperation",
      "outputs": [],
      "stateMutability": "nonpayable",
      "type": "function"
    },
    {
      "inputs": [
        {
          "internalType": "address",
          "name": "_tokenAddress",
          "type": "address"
        },
        {
          "internalType": "address",
          "name": "_recipient",
          "type": "address"
        },
        {
          "internalType": "uint256",
          "name": "_amount",
          "type": "uint256"
        }
      ],
      "name": "withdrawTokens",
      "outputs": [
        {
          "internalType": "bool",
          "name": "",
          "type": "bool"
        }
      ],
      "stateMutability": "nonpayable",
      "type": "function"
    }
  ],
  "bytecode": "0x608060405234801561001057600080fd5b50336000806101000a81548173ffffffffffffffffffffffffffffffffffffffff021916908373ffffffffffffffffffffffffffffffffffffffff16021790555061036f806100606000396000f3fe608060405234801561001057600080fd5b50600436106100365760003560e01c80635e35359e1461003b5780638950cc63146100c1575b600080fd5b6100a76004803603606081101561005157600080fd5b81019080803573ffffffffffffffffffffffffffffffffffffffff169060200190929190803573ffffffffffffffffffffffffffffffffffffffff16906020019092919080359060200190929190505050610139565b604051808215151515815260200191505060405180910390f35b610137600480360360808110156100d757600080fd5b81019080803573ffffffffffffffffffffffffffffffffffffffff169060200190929190803573ffffffffffffffffffffffffffffffffffffffff1690602001909291908035906020019092919080359060200190929190505050610268565b005b60008060009054906101000a900473ffffffffffffffffffffffffffffffffffffffff1673ffffffffffffffffffffffffffffffffffffffff163373ffffffffffffffffffffffffffffffffffffffff161461019457600080fd5b60008490508073ffffffffffffffffffffffffffffffffffffffff1663a9059cbb85856040518363ffffffff1660e01b8152600401808373ffffffffffffffffffffffffffffffffffffffff1673ffffffffffffffffffffffffffffffffffffffff16815260200182815260200192505050602060405180830381600087803b15801561022057600080fd5b505af1158015610234573d6000803e3d6000fd5b505050506040513d602081101561024a57600080fd5b81019080805190602001909291905050505060019150509392505050565b60008490508073ffffffffffffffffffffffffffffffffffffffff1663a9059cbb858486016040518363ffffffff1660e01b8152600401808373ffffffffffffffffffffffffffffffffffffffff1673ffffffffffffffffffffffffffffffffffffffff16815260200182815260200192505050602060405180830381600087803b1580156102f657600080fd5b505af115801561030a573d6000803e3d6000fd5b505050506040513d602081101561032057600080fd5b810190808051906020019092919050505050505050505056fea2646970667358221220ea69ce50366ac13766af650eade32635a2942064a2ff386eb71dbaae227cfb1864736f6c63430006060033",
  "immutableReferences": {},
  "source": "pragma solidity 0.6.6;\n\nimport \"@openzeppelin/contracts/token/ERC20/IERC20.sol\";\n\ncontract FlashLoanPractice {\n  address private owner;\n\n  constructor() public {\n    owner = msg.sender;\n  }\n\n  function executeOperation (\n    address _tokenAddress,\n    address _reserve,\n    uint256 _amount,\n    uint256 _fee\n    /*bytes calldata _params*/) external {\n\n    IERC20 LoanedToken = IERC20(_tokenAddress);\n\n    // Run contract logic\n\n    LoanedToken.transfer(_reserve, (_amount+ _fee));\n  }\n\n  function withdrawTokens(\n    address _tokenAddress,\n    address _recipient, \n    uint256 _amount) external returns(bool) {\n      require(msg.sender == owner);\n      IERC20 WithdrawToken = IERC20(_tokenAddress);\n      WithdrawToken.transfer(_recipient, _amount);\n      return true;\n  } \n}",
  "sourcePath": "/Users/justsomeguy/Documents/practice/dapp-pratice/contracts/FashLoan.sol",
  "compiler": {
    "name": "solc",
    "version": "0.6.6+commit.6c089d02.Emscripten.clang"
  },
  "schemaVersion": "3.1.0",
  "updatedAt": "2020-09-09T01:04:11.609Z",
  "devdoc": {
    "methods": {}
  },
  "userdoc": {
    "methods": {}
  }
}