{
  "contractName": "TestContract",
  "abi": [
    {
      "inputs": [
        {
          "internalType": "uint256",
          "name": "_totalSupply",
          "type": "uint256"
        },
        {
          "internalType": "string",
          "name": "_name",
          "type": "string"
        },
        {
          "internalType": "uint256",
          "name": "_decimals",
          "type": "uint256"
        },
        {
          "internalType": "string",
          "name": "_symbol",
          "type": "string"
        }
      ],
      "stateMutability": "nonpayable",
      "type": "constructor"
    },
    {
      "anonymous": false,
      "inputs": [
        {
          "indexed": false,
          "internalType": "address",
          "name": "recipient",
          "type": "address"
        },
        {
          "indexed": false,
          "internalType": "address",
          "name": "sender",
          "type": "address"
        },
        {
          "indexed": false,
          "internalType": "uint256",
          "name": "amount",
          "type": "uint256"
        }
      ],
      "name": "Transfer",
      "type": "event"
    },
    {
      "inputs": [
        {
          "internalType": "address",
          "name": "",
          "type": "address"
        }
      ],
      "name": "allowances",
      "outputs": [
        {
          "internalType": "uint256",
          "name": "",
          "type": "uint256"
        }
      ],
      "stateMutability": "view",
      "type": "function"
    },
    {
      "inputs": [
        {
          "internalType": "address",
          "name": "",
          "type": "address"
        }
      ],
      "name": "balances",
      "outputs": [
        {
          "internalType": "uint256",
          "name": "",
          "type": "uint256"
        }
      ],
      "stateMutability": "view",
      "type": "function"
    },
    {
      "inputs": [],
      "name": "decimals",
      "outputs": [
        {
          "internalType": "uint256",
          "name": "",
          "type": "uint256"
        }
      ],
      "stateMutability": "view",
      "type": "function"
    },
    {
      "inputs": [],
      "name": "name",
      "outputs": [
        {
          "internalType": "string",
          "name": "",
          "type": "string"
        }
      ],
      "stateMutability": "view",
      "type": "function"
    },
    {
      "inputs": [],
      "name": "symbol",
      "outputs": [
        {
          "internalType": "string",
          "name": "",
          "type": "string"
        }
      ],
      "stateMutability": "view",
      "type": "function"
    },
    {
      "inputs": [],
      "name": "totalSupply",
      "outputs": [
        {
          "internalType": "uint256",
          "name": "",
          "type": "uint256"
        }
      ],
      "stateMutability": "view",
      "type": "function"
    },
    {
      "inputs": [
        {
          "internalType": "address",
          "name": "_address",
          "type": "address"
        }
      ],
      "name": "balanceOf",
      "outputs": [
        {
          "internalType": "uint256",
          "name": "",
          "type": "uint256"
        }
      ],
      "stateMutability": "view",
      "type": "function"
    },
    {
      "inputs": [
        {
          "internalType": "address",
          "name": "_recipient",
          "type": "address"
        },
        {
          "internalType": "uint256",
          "name": "_amount",
          "type": "uint256"
        }
      ],
      "name": "transfer",
      "outputs": [
        {
          "internalType": "bool",
          "name": "",
          "type": "bool"
        }
      ],
      "stateMutability": "nonpayable",
      "type": "function"
    }
  ],
  "bytecode": "0x608060405234801561001057600080fd5b506040516109e53803806109e58339818101604052608081101561003357600080fd5b81019080805190602001909291908051604051939291908464010000000082111561005d57600080fd5b8382019150602082018581111561007357600080fd5b825186600182028301116401000000008211171561009057600080fd5b8083526020830192505050908051906020019080838360005b838110156100c45780820151818401526020810190506100a9565b50505050905090810190601f1680156100f15780820380516001836020036101000a031916815260200191505b50604052602001805190602001909291908051604051939291908464010000000082111561011e57600080fd5b8382019150602082018581111561013457600080fd5b825186600182028301116401000000008211171561015157600080fd5b8083526020830192505050908051906020019080838360005b8381101561018557808201518184015260208101905061016a565b50505050905090810190601f1680156101b25780820380516001836020036101000a031916815260200191505b506040525050508360008190555082600190805190602001906101d69291906101fe565b508160028190555080600390805190602001906101f49291906101fe565b50505050506102a3565b828054600181600116156101000203166002900490600052602060002090601f016020900481019282601f1061023f57805160ff191683800117855561026d565b8280016001018555821561026d579182015b8281111561026c578251825591602001919060010190610251565b5b50905061027a919061027e565b5090565b6102a091905b8082111561029c576000816000905550600101610284565b5090565b90565b610733806102b26000396000f3fe608060405234801561001057600080fd5b50600436106100885760003560e01c8063313ce5671161005b578063313ce567146101de57806370a08231146101fc57806395d89b4114610254578063a9059cbb146102d757610088565b806306fdde031461008d57806318160ddd1461011057806327e235e31461012e5780632b603c7114610186575b600080fd5b61009561033d565b6040518080602001828103825283818151815260200191508051906020019080838360005b838110156100d55780820151818401526020810190506100ba565b50505050905090810190601f1680156101025780820380516001836020036101000a031916815260200191505b509250505060405180910390f35b6101186103db565b6040518082815260200191505060405180910390f35b6101706004803603602081101561014457600080fd5b81019080803573ffffffffffffffffffffffffffffffffffffffff1690602001909291905050506103e1565b6040518082815260200191505060405180910390f35b6101c86004803603602081101561019c57600080fd5b81019080803573ffffffffffffffffffffffffffffffffffffffff1690602001909291905050506103f9565b6040518082815260200191505060405180910390f35b6101e6610411565b6040518082815260200191505060405180910390f35b61023e6004803603602081101561021257600080fd5b81019080803573ffffffffffffffffffffffffffffffffffffffff169060200190929190505050610417565b6040518082815260200191505060405180910390f35b61025c610465565b6040518080602001828103825283818151815260200191508051906020019080838360005b8381101561029c578082015181840152602081019050610281565b50505050905090810190601f1680156102c95780820380516001836020036101000a031916815260200191505b509250505060405180910390f35b610323600480360360408110156102ed57600080fd5b81019080803573ffffffffffffffffffffffffffffffffffffffff16906020019092919080359060200190929190505050610503565b604051808215151515815260200191505060405180910390f35b60018054600181600116156101000203166002900480601f0160208091040260200160405190810160405280929190818152602001828054600181600116156101000203166002900480156103d35780601f106103a8576101008083540402835291602001916103d3565b820191906000526020600020905b8154815290600101906020018083116103b657829003601f168201915b505050505081565b60005481565b60046020528060005260406000206000915090505481565b60056020528060005260406000206000915090505481565b60025481565b600080600460008473ffffffffffffffffffffffffffffffffffffffff1673ffffffffffffffffffffffffffffffffffffffff16815260200190815260200160002054905080915050919050565b60038054600181600116156101000203166002900480601f0160208091040260200160405190810160405280929190818152602001828054600181600116156101000203166002900480156104fb5780601f106104d0576101008083540402835291602001916104fb565b820191906000526020600020905b8154815290600101906020018083116104de57829003601f168201915b505050505081565b600081600460003373ffffffffffffffffffffffffffffffffffffffff1673ffffffffffffffffffffffffffffffffffffffff1681526020019081526020016000205410156105ba576040517f08c379a00000000000000000000000000000000000000000000000000000000081526004018080602001828103825260188152602001807f6e6f7420656e6f75676820746f6b656e2062616c616e6365000000000000000081525060200191505060405180910390fd5b81600460003373ffffffffffffffffffffffffffffffffffffffff1673ffffffffffffffffffffffffffffffffffffffff1681526020019081526020016000206000828254039250508190555081600460008573ffffffffffffffffffffffffffffffffffffffff1673ffffffffffffffffffffffffffffffffffffffff168152602001908152602001600020600082825401925050819055507fddf252ad1be2c89b69c2b068fc378daa952ba7f163c4a11628f55a4df523b3ef833384604051808473ffffffffffffffffffffffffffffffffffffffff1673ffffffffffffffffffffffffffffffffffffffff1681526020018373ffffffffffffffffffffffffffffffffffffffff1673ffffffffffffffffffffffffffffffffffffffff168152602001828152602001935050505060405180910390a1600190509291505056fea2646970667358221220cb0ad05df73f91c22e8ba4285fb7e691a2fc63bd82100360a9eb1486023cfa9e64736f6c63430006000033",
  "source": "pragma solidity 0.6.0;\n\ncontract TestContract {\n  uint256 public totalSupply;\n  string public name;\n  uint256 public decimals;\n  string public symbol;\n\n  \n  mapping(address => uint256) public balances;\n  mapping(address => uint256) public allowances;\n\n  // Events\n  event Transfer(address recipient, address sender, uint256 amount);\n\n  constructor(\n    uint256 _totalSupply, \n    string memory _name, \n    uint256 _decimals, \n    string memory _symbol\n    ) public {\n    totalSupply = _totalSupply;\n    name = _name;\n    decimals = _decimals;\n    symbol = _symbol;\n  }\n\n  function balanceOf(address _address) public view returns(uint256) {\n    uint256 balance = balances[_address];\n    return balance;\n  }\n\n  function transfer(address _recipient, uint256 _amount) public returns(bool) {\n    require(balances[msg.sender] >= _amount, 'not enough token balance');\n    // TODO: Add in safeMath lib \n    balances[msg.sender] -= _amount;\n    balances[_recipient] += _amount;\n\n    // Transfer Event\n    emit Transfer(_recipient, msg.sender, _amount);\n\n    return(true);\n  }\n}",
  "sourcePath": "/Users/justsomeguy/Documents/practice/dapp-pratice/contracts/TestContract.sol",
  "compiler": {
    "name": "solc",
    "version": "0.6.0+commit.26b70077.Emscripten.clang"
  },
  "schemaVersion": "3.1.0",
  "updatedAt": "2020-09-04T03:26:44.709Z",
  "devdoc": {
    "methods": {}
  },
  "userdoc": {
    "methods": {}
  }
}